:100000000C942A000C9447000C9447000C94470071
:100010000C9447000C9447000C9447000C94470044
:100020000C9447000C9447000C9447000C94470034
:100030000C9447000C9447000C9447000C94470024
:100040000C9447000C9447000C9447000C94470014
:100050000C94470011241FBECFE5D4E0DEBFCDBF16
:1000600010E0A0E6B0E0E8E2F1E002C005900D92F9
:10007000A036B107D9F710E0A0E6B0E001C01D92AC
:10008000A036B107E1F70E9458000C9492000C943E
:10009000000080E487B98EE886B9089587B187B9F2
:1000A000369A349BFECF349A24B135B1C9010895F4
:1000B0008FEF81BB80E487B98EE886B94FEFE1E02E
:1000C000F0E020E533EC87B187B9369A349BFECF58
:1000D000349A84B195B164E670E00E947E00683085
:1000E00040F4CF0102C0880F991F6A95E2F782BBE6
:1000F00001C042BBC9010197F1F7E5CFAA1BBB1BA9
:1001000051E107C0AA1FBB1FA617B70710F0A61B17
:10011000B70B881F991F5A95A9F780959095BC0138
:08012000CD010895F894FFCF12
:00000001FF
