:100000000C942A000C9447000C9447000C94470071
:100010000C9447000C9447000C9447000C94470044
:100020000C9447000C9447000C9447000C94470034
:100030000C9447000C9447000C9447000C94470024
:100040000C9447000C9447000C9447000C94470014
:100050000C94470011241FBECFE5D4E0DEBFCDBF16
:1000600010E0A0E6B0E0E8ECF0E002C005900D92F0
:10007000A036B107D9F710E0A0E6B0E001C01D92AC
:10008000A036B107E1F70E9449000C9462000C947D
:1000900000008FEF87BB4FEF29E130E048BB80E4E1
:1000A0009CE9F9013197F1F70197D9F718BA80E483
:1000B0009CE9F9013197F1F70197D9F7EFCF8FEF6D
:0800C00087BB0895F894FFCFFF
:00000001FF
