:100000000C942A000C9447000C9447000C94470071
:100010000C9447000C9447000C9447000C94470044
:100020000C9458000C9447000C9447000C94470023
:100030000C9447000C9447000C9447000C94470024
:100040000C9447000C9447000C9447000C94470014
:100050000C94470011241FBECFE5D4E0DEBFCDBF16
:1000600010E0A0E6B0E0E6E2FAE002C005900D92F2
:10007000AE36B107D9F710E0AEE6B0E001C01D9290
:10008000AC37B107E1F70E9480000C9411050C9485
:10009000000083E083BF89B7816089BF12BE0895E5
:1000A00083E08EBD1DBC1CBC1FBC84E089BF0895CD
:1000B0001F920F920FB60F9211248F939F938091EE
:1000C0006E0090916F008A30910571F480917000FC
:1000D000909171000196909371008093700010923E
:1000E0006F0010926E0005C0019690936F00809390
:1000F0006E009F918F910F900FBE0F901F901895DB
:10010000CF92DF92EF92FF920F931F93CF93DF93E3
:100110008CE00E94FF0180E690E00E94E50183E010
:100120008EBD1DBC1CBC1FBC84E089BF789496E7C3
:10013000C92E90E0D92EC9E6D0E08AE7E82E80E00B
:10014000F82E08E710E086E060E00E94BC0100D0D5
:1001500000D000D0EDB7FEB73196ADB7BEB712965E
:10016000DC92CE921197D383C283809170009091DC
:100170007100958384830E9439028DB79EB70696DD
:100180000FB6F8949EBF0FBE8DBFC6010E94E50159
:100190008091700090917100CB976CF0109271007B
:1001A000109270008091720090917300019690936C
:1001B00073008093720083E060E00E94BC0100D075
:1001C00000D000D0EDB7FEB73196ADB7BEB71296EE
:1001D000FC92EE921197D383C2838091720090912A
:1001E0007300958384830E9439028DB79EB706966B
:1001F0000FB6F8949EBF0FBE8DBFC7010E94E501E8
:100200008091720090917300CB976CF01092730004
:1002100010927200809174009091750001969093F5
:1002200075008093740080E060E00E94BC0100D003
:1002300000D000D0EDB7FEB73196ADB7BEB712967D
:100240001C930E931197D383C28380917400909175
:100250007500958384830E9439028DB79EB70696F8
:100260000FB6F8949EBF0FBE8DBFC8010E94E50176
:100270008091740090917500CB970CF464CF10922C
:100280007300109272001092750010927400109218
:1002900071001092700057CF662311F0C09A01C010
:1002A000C098C198BC9ABD9ABE9ABF9AC798C69882
:1002B000C598C49887FDC79A86FDC69A85FDC59ADC
:1002C00084FDC49AC29A00C0C298C798C698C598BF
:1002D000C49883FDC79A82FDC69A81FDC59A80FDA8
:1002E000C49AC29A00C0C298C49AC59AC69AC79ABC
:1002F0000895882311F0C09A01C0C098C19ABC9893
:10030000BD98BE98BF98C29A00C0B49B02C080E15D
:1003100001C080E0B5998062B6998064B799806821
:10032000C29800C0C29A00C0B4998160B599826039
:10033000B6998460B7998860C298089580E00E9459
:10034000790187FDFBCF00C080E00E94790108950C
:100350001F93182F0E949E01812F60E00E944C0184
:100360001F9108951F93182F0E949E01812F61E015
:100370000E944C011F910895662311F4805801C01A
:1003800080540E94A80108950E949E0190E0089563
:1003900081E00E94A801089582E00E94A8010895CA
:1003A0001F93182F0E949E011A3049F4803410F0D8
:1003B00080E001C080E480580E94A80104C0812F21
:1003C00061E00E944C011F910895CF93DF93EC01EF
:1003D00002C00E94D00189918823D9F7DF91CF9183
:1003E0000895CF93DF93EC0102C00E94D001FE017B
:1003F000219684918823C9F7DF91CF9108951F93A7
:10040000182FB89AB99ABA9ABC9ABD9ABE9ABF9A4E
:1004100080EA9FE00197F1F7C59AC49AC29A00C09A
:10042000C29880EE94E00197F1F7C29A00C0C2989A
:1004300080E190E0FC013197F1F7C29A00C0C298C8
:10044000FC013197F1F7C498C29A00C0C298019795
:10045000F1F788E20E94A80188E00E94A8010E94AA
:10046000C80186E00E94A801812F0E94A8011F9167
:100470000895AEE0B0E0EFE3F2E00C94E8040D89FB
:100480001E8986E08C831A8309838FEF9FE79E8302
:100490008D839E01275E3F4FCE0101966F89788D37
:1004A000A9010E945D022F813885020F131FF801F8
:1004B00010822E96E4E00C940405ABE0B0E0E3E695
:1004C000F2E00C94DA043C012B015A01FC01178282
:1004D0001682838181FD03C06FEF7FEFC6C19AE072
:1004E000892E1E010894211C311CF3012381F20185
:1004F00023FD859123FF81912F01882309F4B2C147
:10050000853239F423FD859123FF81912F018532B6
:1005100029F490E0B3010E945004E7CF982FFF2404
:10052000EE249924FFE1FF15D0F09B3269F09C3254
:1005300028F4903259F0933291F40EC09D3249F074
:10054000903369F441E024C052E0F52A84E0F82AAF
:1005500028C098E0F92A25C0E0E1FE2A22C0F7FC75
:1005600029C0892F80538A3070F4F6FE05C0989C0C
:10057000902C1124980E15C0E89CE02C1124E80E54
:10058000F0E2FF2A0EC09E3229F4F6FC6BC140E473
:10059000F42A07C09C3619F450E8F52A02C09836B0
:1005A00049F4F20123FD959123FF91912F019923A5
:1005B00009F0B8CF892F8554833018F080528330EA
:1005C00038F444E050E0A40EB51E5FE359830FC039
:1005D000933631F0933779F0933509F056C020C047
:1005E000F5018081898342E050E0A40EB51E6101CF
:1005F00001E010E012C0F501C080D180F6FC03C01C
:100600006FEF7FEF02C0692D70E042E050E0A40E72
:10061000B51EC6010E9445048C015FE7F52214C097
:10062000F501C080D180F6FC03C06FEF7FEF02C000
:10063000692D70E042E050E0A40EB51EC6010E9494
:100640003A048C0150E8F52AF3FE07C01AC080E294
:1006500090E0B3010E945004EA948E2D90E00817B8
:100660001907A8F30EC0F601F7FC8591F7FE8191FA
:100670006F0190E0B3010E945004E110EA94015030
:1006800010400115110579F7EAC0943611F099363A
:1006900069F5F7FE08C0F50120813181428153815F
:1006A00084E090E00AC0F501808191819C0144279B
:1006B00037FD4095542F82E090E0A80EB91E9FE6CA
:1006C000F92257FF09C050954095309521953F4F2D
:1006D0004F4F5F4FE0E8FE2ACA01B901A1012AE0AD
:1006E00030E00E947C04D82ED21840C0953729F4FF
:1006F0001F2D1F7E2AE030E01DC01F2D197F9F3661
:1007000061F0903720F4983509F0ACC00FC09037F5
:1007100039F0983709F0A6C004C028E030E00AC0DC
:10072000106114FD146020E130E004C014FD166077
:1007300020E132E017FF08C0F501608171818281FC
:10074000938144E050E008C0F50180819181BC01B3
:1007500080E090E042E050E0A40EB51EA1010E94AE
:100760007C04D82ED2188FE7F82EF122F6FE0BC0AB
:100770005EEFF522D91438F4F4FE07C0F2FC05C090
:100780008FEEF82202C01D2D01C0192DF4FE0DC000
:10079000FE01ED0DF11D8081803319F499EEF922EF
:1007A00008C01F5FF2FE05C003C08F2D867809F0D8
:1007B0001F5F0F2DF3FC14C0F0FE0FC01E1510F0CC
:1007C0009D2C0BC09D2C9E0C911A1E2D06C080E204
:1007D00090E0B3010E9450041F5F1E15C0F304C0D7
:1007E0001E1510F4E11A01C0EE2404FF0FC080E3CF
:1007F00090E0B3010E94500402FF1DC001FD03C040
:1008000088E790E00EC088E590E00BC0802F8678E6
:1008100091F001FF02C08BE201C080E2F7FC8DE2A3
:1008200090E0B3010E94500406C080E390E0B30161
:100830000E9450049A94D914C0F3DA94F101ED0D9A
:10084000F11D808190E0B3010E945004DD20A9F7E2
:1008500006C080E290E0B3010E945004EA94EE20CA
:10086000C1F743CEF30166817781CB012B96E2E19C
:100870000C94F604FC010590615070400110D8F70B
:10088000809590958E0F9F1F0895FC0161507040D8
:1008900001900110D8F7809590958E0F9F1F0895B5
:1008A0000F931F93CF93DF938C01EB018B8181FF1B
:1008B0001BC082FF0DC02E813F818C819D81281736
:1008C000390764F4E881F9810193F983E88306C06C
:1008D000E885F985802F0995892B31F48E819F81D8
:1008E00001969F838E8302C00FEF1FEFC801DF9137
:1008F000CF911F910F910895FA01AA27283051F145
:10090000203181F1E8946F936E7F6E5F7F4F8F4F40
:100910009F4FAF4FB1E03ED0B4E03CD0670F781F9F
:10092000891F9A1FA11D680F791F8A1F911DA11D84
:100930006A0F711D811D911DA11D20D009F46894BD
:100940003F912AE0269F11243019305D3193DEF665
:10095000CF010895462F4770405D4193B3E00FD01B
:10096000C9F7F6CF462F4F70405D4A3318F0495D06
:1009700031FD4052419302D0A9F7EACFB4E0A695E9
:100980009795879577956795BA95C9F7009761050B
:10099000710508959B01AC010A2E06945795479561
:1009A00037952795BA95C9F7620F731F841F951F56
:1009B000A01D08952F923F924F925F926F927F9267
:1009C0008F929F92AF92BF92CF92DF92EF92FF925F
:1009D0000F931F93CF93DF93CDB7DEB7CA1BDB0B0B
:1009E0000FB6F894DEBF0FBECDBF09942A883988B0
:1009F00048885F846E847D848C849B84AA84B984B7
:100A0000C884DF80EE80FD800C811B81AA81B981C2
:100A1000CE0FD11D0FB6F894DEBF0FBECDBFED01D6
:060A20000895F894FFCFD9
:0E0A260030303A30303A303000253264000073
:00000001FF
