:100000000C942A000C9447000C9447000C94470071
:100010000C9447000C9447000C9447000C94470044
:100020000C9447000C9447000C9447000C94470034
:100030000C9447000C9447000C9447000C94470024
:100040000C9447000C9447000C9447000C94470014
:100050000C94470011241FBECFE5D4E0DEBFCDBF16
:1000600010E0A0E6B0E0E2EBF2E002C005900D92F5
:10007000A036B107D9F710E0A0E6B0E001C01D92AC
:10008000A036B107E1F70E945A000C9457010C9476
:10009000000089B990BD80B5866880BD88E18AB9C5
:1000A0005F9A08955F9BFECF8CB108955D9BFECF54
:1000B0008CB9089587E689B910BC80B5866880BD83
:1000C00088E18AB95F9A5F9BFECF8CB15D9BFECFC2
:1000D0008CB9F9CF662311F0C09A01C0C098C198BD
:1000E000BC9ABD9ABE9ABF9AC798C698C598C4983C
:1000F00087FDC79A86FDC69A85FDC59A84FDC49A78
:10010000C29A00C0C298C798C698C598C49883FD83
:10011000C79A82FDC69A81FDC59A80FDC49AC29A8B
:1001200000C0C298C49AC59AC69AC79A08958823EF
:1001300011F0C09A01C0C098C19ABC98BD98BE98F1
:10014000BF98C29A00C0B49B02C080E101C080E0A9
:10015000B5998062B6998064B7998068C29800C0EA
:10016000C29A00C0B4998160B5998260B6998460E2
:10017000B7998860C298089580E00E94970087FD33
:10018000FBCF00C080E00E94970008951F93182FB6
:100190000E94BC00812F60E00E946A001F910895B8
:1001A0001F93182F0E94BC00812F61E00E946A00FB
:1001B0001F910895662311F4805801C080540E9455
:1001C000C60008950E94BC0090E0089581E00E945E
:1001D000C600089582E00E94C60008951F93182F5C
:1001E0000E94BC001A3049F4803410F080E001C055
:1001F00080E480580E94C60004C0812F61E00E9404
:100200006A001F910895CF93DF93EC0102C00E9412
:10021000EE0089918823D9F7DF91CF910895CF938C
:10022000DF93EC0102C00E94EE00FE012196849152
:100230008823C9F7DF91CF9108951F93182FB89A9B
:10024000B99ABA9ABC9ABD9ABE9ABF9A80EA9FE0C0
:100250000197F1F7C59AC49AC29A00C0C29880EE7D
:1002600094E00197F1F7C29A00C0C29880E190E053
:10027000FC013197F1F7C29A00C0C298FC01319796
:10028000F1F7C498C29A00C0C2980197F1F788E2CA
:100290000E94C60088E00E94C6000E94E60086E038
:1002A0000E94C600812F0E94C6001F910895F894F5
:0202B000FFCF7E
:00000001FF
