:100000000C942A000C9447000C9447000C94470071
:100010000C9447000C9447000C9447000C94470044
:100020000C9447000C9450000C9447000C9447002B
:100030000C9447000C9447000C9447000C94470024
:100040000C9447000C9447000C9447000C94470014
:100050000C94470011241FBECFE5D4E0DEBFCDBF16
:1000600010E0A0E6B0E0E4EAF2E002C005900D92F4
:10007000A036B107D9F710E0A0E6B0E001C01D92AC
:10008000A436B107E1F70E9478000C9450010C945B
:10009000000083E083BF89B7816089BF12BE0895E5
:1000A0001F920F920FB60F9211248F939F938091FE
:1000B0006200909163008D33910571F4809160002E
:1000C000909161000196909361008093600010927E
:1000D00063001092620005C00196909363008093C4
:1000E00062009F918F910F900FBE0F901F901895F7
:1000F0008F929F92AF92BF92DF92EF92FF920F93F7
:100100001F93CF93DF938CEF8ABB8FEF81BB8FE080
:1001100087BB18BA83E083BF89B7816089BF12BEED
:1001200078942FE0822E27E2922E92EEA92E94E070
:10013000B92EC89B09C08091600090916100019622
:100140009093610080936000C99B09C0809160001A
:10015000909161000197909361008093600080917D
:1001600060009091610097FF04C0909261008092BE
:10017000600080916000909161008051974224F06E
:100180001092610010926000E0906000F0906100B9
:1001900088E0D82EC8EED3E000E010E0D8BAC7015E
:1001A000BE010E942901CB010E94EB00C50101970D
:1001B000F1F7C701BE010E9429017C01CE016AE06E
:1001C00070E00E942901EB01D6940F5F1F4F0430AD
:1001D000110521F7AECF8430910561F1853091058D
:1001E0007CF48130910501F1823091051CF4892B5A
:1001F000C9F02CC082309105C9F0039739F518C0B9
:1002000087309105E9F08830910534F48530910507
:1002100099F00697D9F412C08830910599F00997A2
:10022000A9F412C08CEF13C080E611C08AED0FC094
:1002300082EF0DC086E60BC086EB09C08EEB07C0CF
:1002400080EE05C08EEF03C086EF01C082E082BB66
:10025000089597FB092E07260AD077FD04D00CD00D
:1002600006D000201AF4709561957F4F0895F6F737
:10027000909581959F4F0895AA1BBB1B51E107C024
:10028000AA1FBB1FA617B70710F0A61BB70B881F26
:10029000991F5A95A9F780959095BC01CD010895B5
:0402A000F894FFCF00
:00000001FF
