:100000000C942A000C9447000C9447000C94470071
:100010000C9447000C9447000C9447000C94470044
:100020000C9447000C9447000C9447000C94470034
:100030000C9447000C9447000C9447000C94470024
:100040000C9447000C9447000C9447000C94470014
:100050000C94470011241FBECFE5D4E0DEBFCDBF16
:1000600010E0A0E6B0E0E6E7F1E002C005900D92F6
:10007000A036B107D9F710E0A0E6B0E001C01D92AC
:10008000A036B107E1F70E9449000C94B9000C9426
:100090000000BF92CF92DF92EF92FF920F931F93D7
:1000A0008FEF81BB87BB88BB20E030E06CEFB62EC2
:1000B00056E6C52E42E0D42E90EEE92E8EEFF82EB5
:1000C00006EF16EBBEEBA0E67AED62EF49E150E0F9
:1000D0004CC024303105A1F1253031058CF421309C
:1000E000310531F12230310524F421153105E1F0DB
:1000F00033C022303105F1F02330310569F51EC0DF
:100100002730310519F1283031053CF4253031050F
:10011000C9F02630310501F517C028303105C1F08E
:1001200029303105C9F416C0B2BA20E030E003C06E
:10013000A2BB01C072BB88E293E210C062BBFBCFDE
:10014000C2BAF9CF12BBF7CFB2BBF5CFE2BAF3CF49
:10015000F2BAF1CF02BBEFCFD2BAEDCFFA013197AD
:10016000F1F70197D9F72F5F3F4F2A303105E4F6B9
:06017000B0CFF894FFCFB0
:00000001FF
