:100000000C942A000C9447000C9447000C94470071
:100010000C9447000C9447000C9447000C94470044
:100020000C9447000C9447000C9447000C94470034
:100030000C9447000C9447000C9447000C94470024
:100040000C9447000C9447000C9447000C94470014
:100050000C94470011241FBECFE5D4E0DEBFCDBF16
:1000600010E0A0E6B0E0EAE9F9E002C005900D92E8
:10007000AC37B107D9F710E0ACE7B0E001C01D9292
:10008000A038B107E1F70E9459000C94CB040C94FE
:10009000000080E487B98EE886B9089597B1982B5F
:1000A00097B9369A349BFECF349A24B135B1C90141
:1000B00008958F929F92AF92BF92CF92DF92EF926C
:1000C000FF920F931F93CF93DF938CE00E94B901AF
:1000D00080E060E00E94760180E690E00E949F014F
:1000E00080E061E00E9476018FE690E00E949F012F
:1000F00080E487B98EE886B9CCE7D0E097E7A92EEF
:1001000090E0B92E89E1882E912C87B187B9369A73
:10011000349BFECF349AE4B0F5B0389A369A349BCB
:10012000FECF349AC4B0D5B0399A369A349BFECFFC
:10013000349A04B115B182E060E00E94760100D0EB
:1001400000D000D0EDB7FEB73196ADB7BEB712966E
:10015000DC93CE931197B382A282F582E4820E944F
:10016000F3018DB79EB706960FB6F8949EBF0FBEEB
:100170008DBFCE010E949F0189E060E00E94760160
:1001800000D000D000D0EDB7FEB73196ADB7BEB706
:100190001296DC93CE931197B382A282D582C48249
:1001A0000E94F3018DB79EB706960FB6F8949EBFD6
:1001B0000FBE8DBFCE010E949F0182E061E00E94D0
:1001C000760100D000D000D0EDB7FEB73196ADB7C4
:1001D000BEB71296DC93CE931197B382A282158399
:1001E00004830E94F3018DB79EB706960FB6F8946C
:1001F0009EBF0FBE8DBFCE010E949F0180E49FE194
:10020000F4013197F1F70197D9F77FCF662311F009
:10021000C09A01C0C098C198BC9ABD9ABE9ABF9AB4
:10022000C798C698C598C49887FDC79A86FDC69A90
:1002300085FDC59A84FDC49AC29A00C0C298C79829
:10024000C698C598C49883FDC79A82FDC69A81FD59
:10025000C59A80FDC49AC29A00C0C298C49AC59A31
:10026000C69AC79A0895882311F0C09A01C0C09811
:10027000C19ABC98BD98BE98BF98C29A00C0B49B62
:1002800002C080E101C080E0B5998062B6998064C7
:10029000B7998068C29800C0C29A00C0B4998160C2
:1002A000B5998260B6998460B7998860C2980895BC
:1002B00080E00E94330187FDFBCF00C080E00E94F8
:1002C000330108951F93182F0E945801812F60E079
:1002D0000E9406011F9108951F93182F0E94580134
:1002E000812F61E00E9406011F910895662311F499
:1002F000805801C080540E94620108950E945801F4
:1003000090E0089581E00E946201089582E00E94D9
:10031000620108951F93182F0E9458011A3049F462
:10032000803410F080E001C080E480580E946201B7
:1003300004C0812F61E00E9406011F910895CF93B0
:10034000DF93EC0102C00E948A0189918823D9F7CA
:10035000DF91CF910895CF93DF93EC0102C00E940B
:100360008A01FE01219684918823C9F7DF91CF91FC
:1003700008951F93182FB89AB99ABA9ABC9ABD9A41
:10038000BE9ABF9A80EA9FE00197F1F7C59AC49A96
:10039000C29A00C0C29880EE94E00197F1F7C29A29
:1003A00000C0C29880E190E0FC013197F1F7C29A59
:1003B00000C0C298FC013197F1F7C498C29A00C0FE
:1003C000C2980197F1F788E20E94620188E00E94DA
:1003D00062010E94820186E00E946201812F0E94D8
:1003E00062011F910895AEE0B0E0E9EFF1E00C94F6
:1003F000A2040D891E8986E08C831A8309838FEFFE
:100400009FE79E838D839E01275E3F4FCE0101961D
:100410006F89788DA9010E9417022F813885020FFC
:10042000131FF80110822E96E4E00C94BE04ABE09A
:10043000B0E0EDE1F2E00C9494043C012B015A0190
:10044000FC0117821682838181FD03C06FEF7FEF6D
:10045000C6C19AE0892E1E010894211C311CF301AB
:100460002381F20123FD859123FF81912F018823B0
:1004700009F4B2C1853239F423FD859123FF8191BE
:100480002F01853229F490E0B3010E940A04E7CFDE
:10049000982FFF24EE249924FFE1FF15D0F09B3222
:1004A00069F09C3228F4903259F0933291F40EC0E6
:1004B0009D3249F0903369F441E024C052E0F52ABE
:1004C00084E0F82A28C098E0F92A25C0E0E1FE2A55
:1004D00022C0F7FC29C0892F80538A3070F4F6FEC1
:1004E00005C0989C902C1124980E15C0E89CE02C17
:1004F0001124E80EF0E2FF2A0EC09E3229F4F6FC29
:100500006BC140E4F42A07C09C3619F450E8F52A80
:1005100002C0983649F4F20123FD959123FF919191
:100520002F01992309F0B8CF892F8554833018F013
:100530008052833038F444E050E0A40EB51E5FE3EF
:1005400059830FC0933631F0933779F0933509F022
:1005500056C020C0F5018081898342E050E0A40E9E
:10056000B51E610101E010E012C0F501C080D1802C
:10057000F6FC03C06FEF7FEF02C0692D70E042E030
:1005800050E0A40EB51EC6010E94FF038C015FE778
:10059000F52214C0F501C080D180F6FC03C06FEFD6
:1005A0007FEF02C0692D70E042E050E0A40EB51E5E
:1005B000C6010E94F4038C0150E8F52AF3FE07C03F
:1005C0001AC080E290E0B3010E940A04EA948E2DE2
:1005D00090E008171907A8F30EC0F601F7FC859103
:1005E000F7FE81916F0190E0B3010E940A04E110CF
:1005F000EA94015010400115110579F7EAC09436CC
:1006000011F0993669F5F7FE08C0F50120813181B6
:100610004281538184E090E00AC0F501808191819C
:100620009C01442737FD4095542F82E090E0A80EAE
:10063000B91E9FE6F92257FF09C0509540953095A5
:1006400021953F4F4F4F5F4FE0E8FE2ACA01B901A5
:10065000A1012AE030E00E943604D82ED21840C012
:10066000953729F41F2D1F7E2AE030E01DC01F2D75
:10067000197F9F3661F0903720F4983509F0ACC0AF
:100680000FC0903739F0983709F0A6C004C028E0B1
:1006900030E00AC0106114FD146020E130E004C0B5
:1006A00014FD166020E132E017FF08C0F5016081FB
:1006B00071818281938144E050E008C0F50180811E
:1006C0009181BC0180E090E042E050E0A40EB51EB4
:1006D000A1010E943604D82ED2188FE7F82EF122FD
:1006E000F6FE0BC05EEFF522D91438F4F4FE07C015
:1006F000F2FC05C08FEEF82202C01D2D01C0192D9D
:10070000F4FE0DC0FE01ED0DF11D8081803319F462
:1007100099EEF92208C01F5FF2FE05C003C08F2DBD
:10072000867809F01F5F0F2DF3FC14C0F0FE0FC098
:100730001E1510F09D2C0BC09D2C9E0C911A1E2D89
:1007400006C080E290E0B3010E940A041F5F1E15FC
:10075000C0F304C01E1510F4E11A01C0EE2404FF1A
:100760000FC080E390E0B3010E940A0402FF1DC0A5
:1007700001FD03C088E790E00EC088E590E00BC063
:10078000802F867891F001FF02C08BE201C080E2E9
:10079000F7FC8DE290E0B3010E940A0406C080E3FA
:1007A00090E0B3010E940A049A94D914C0F3DA9439
:1007B000F101ED0DF11D808190E0B3010E940A046A
:1007C000DD20A9F706C080E290E0B3010E940A0490
:1007D000EA94EE20C1F743CEF30166817781CB0125
:1007E0002B96E2E10C94B004FC010590615070403E
:1007F0000110D8F7809590958E0F9F1F0895FC01EA
:100800006150704001900110D8F7809590958E0F3F
:100810009F1F08950F931F93CF93DF938C01EB01DC
:100820008B8181FF1BC082FF0DC02E813F818C8197
:100830009D812817390764F4E881F9810193F983D0
:10084000E88306C0E885F985802F0995892B31F466
:100850008E819F8101969F838E8302C00FEF1FEFD1
:10086000C801DF91CF911F910F910895FA01AA2736
:10087000283051F1203181F1E8946F936E7F6E5FE3
:100880007F4F8F4F9F4FAF4FB1E03ED0B4E03CD091
:10089000670F781F891F9A1FA11D680F791F8A1F74
:1008A000911DA11D6A0F711D811D911DA11D20D0DB
:1008B00009F468943F912AE0269F11243019305D95
:1008C0003193DEF6CF010895462F4770405D419386
:1008D000B3E00FD0C9F7F6CF462F4F70405D4A33D3
:1008E00018F0495D31FD4052419302D0A9F7EACF9B
:1008F000B4E0A6959795879577956795BA95C9F7CA
:1009000000976105710508959B01AC010A2E0694BC
:100910005795479537952795BA95C9F7620F731F75
:10092000841F951FA01D08952F923F924F925F92B2
:100930006F927F928F929F92AF92BF92CF92DF92EF
:10094000EF92FF920F931F93CF93DF93CDB7DEB754
:10095000CA1BDB0B0FB6F894DEBF0FBECDBF0994E8
:100960002A88398848885F846E847D848C849B843F
:10097000AA84B984C884DF80EE80FD800C811B814D
:10098000AA81B981CE0FD11D0FB6F894DEBF0FBE7C
:0A099000CDBFED010895F894FFCFEC
:10099A00783A2020202020793A2020202020007A2E
:0C09AA003A2020202020002533640000AB
:00000001FF
